:1000000000308A001928000028308400831300087B
:10001000031918280130F800F701F70B0D28F80B29
:100020000C284A30F700F70B13281628800B0A28F3
:10003000080003081F398300FF30A00083161F1437
:100040009F141F159F1183133F30850000308600D9
:100050000A308312A1000930A2000530A300063047
:10006000A400831605148312051C5228A501250837
:10007000033C031C5128213025078400831300080A
:10008000A7000030A000831687018312270887008D
:100090000230A700FA30A8000420A70B4A28A50ABE
:1000A00037287828831685148312851C7528043018
:1000B000A6002608003C0318742801302602213EC1
:1000C000840083130008A7000030A0008316870176
:1000D0008312270887000230A700FA30A800042006
:1000E000A70B6D28A603592878281430A8000420EF
:0400F0003128630050
:02400E00313F40
:00000001FF
;PIC16F876
;CRC=8D29  CREATED="10-mar.-21 00:01"
